:020000040800F2
:1000000040080020C501000835260008411F0008EF
:1000100031260008390600084D32000800000000B3
:10002000000000000000000000000000752800082B
:100030003D0600080000000039260008792A000863
:10004000DF010008DF010008DF010008DF01000810
:10005000DF010008DF010008DF010008DF01000800
:10006000DF010008DF010008DF010008DF010008F0
:10007000DF010008DF010008DF010008DF010008E0
:10008000DF010008DF010008DF010008DF010008D0
:10009000DF010008DF010008DF0100087506000825
:1000A000DF010008DF010008DF010008DF010008B0
:1000B000DF010008DF010008DF010008DF010008A0
:1000C000DF010008DF010008DF010008DF01000890
:1000D000DF010008DF010008DF010008DF01000880
:1000E000DF010008DF010008DF01000800F002F86E
:1000F00000F058F814A696E8000CB244B344DA4570
:1001000001D100F04FF8BAE80F000FA696E83000D2
:10011000A5EB040504EB0607AAEB0704A7F101070A
:100120004FEA15154FEA3414A4F10104AC4201D38F
:1001300000F038F813F0010F18BFFB1A43F0010369
:1001400000F001F8DBE71847383B0000583B00009F
:10015000103A24BF78C878C1FAD8520724BF30C8F3
:1001600030C144BF04680C60704700007047000055
:100170000023002400250026103A28BF78C1FBD8B0
:10018000520728BF30C148BF0B607047642900F098
:100190009D80732900F01182002070471FB51FBD9C
:1001A00010B510BD00F00DFA1146FFF7F7FF03F090
:1001B0004FF900F02BFA03B4FFF7F2FF03BC00F095
:1001C00033FA00000948804709480047FEE7FEE788
:1001D000FEE7FEE7FEE7FEE7FEE7FEE7FEE7FEE7F7
:1001E00004480549054A064B704700007D2A00086F
:1001F000ED000008400200204008002040040020DC
:10020000400400200FB41CB5074B06AA7B44694686
:100210000090059800F0A7F90020694600F0B6F9B3
:100220001CBC5DF814FB00007D03000070B50446A3
:1002300085690068C10601D5302600E02026C00788
:1002400007D070BDD4E9012130469047206A401C98
:1002500020626D1EF6D570BD70B5044685690078C4
:10026000C00707D170BDD4E9012120209047206A42
:10027000401C20626D1EF6D570BD70B50C4605465B
:10028000012A05D02878800600D5EA69002302E01B
:10029000012305E05B1C934202D2E05C0028F9D107
:1002A000A869E618C01AA861286A18442862284676
:1002B000FFF7BCFF04E0D5E9012114F8010B9047DA
:1002C000B442F8D32846FFF7C7FF70BD2DE9F041CF
:1002D0000646002410687529314616A510D0AFF3E4
:1002E0000080002802DA404213A507E031688A073F
:1002F00001D512A502E0490704D511A5012401E0AA
:10030000AFF3008000210A2206F1240709E0B0FBC8
:10031000F2FCB0FBF2F302FB1C00303078541846BC
:10032000491C0028F3D123462A463046BDE8F04157
:1003300000F0BBB8000000002D0000002B00000002
:10034000200000002DE9F0474FF0000A89460446DE
:10035000C0F820A02046E1688847002876D02528EC
:1003600006D0D4E901219047206A401C2062F1E7C1
:10037000E168204600268847C4F81CA005460027EF
:10038000C4F818A02A2D09D0284603F06BF938B319
:1003900004EB8708303DC8F8185019E059F8041BE1
:1003A000204604EB87029161E1688847012F0546EA
:1003B00018D1E069002820DA26F020061DE0D8F8E0
:1003C000180000EB800005EB40003038C8F818003A
:1003D0002046E1688847054603F044F90028EED13D
:1003E000012F0AD02E2D08D12046E16888477F1CB6
:1003F0000546022F46F02006C4DBA069002803DA78
:10040000404246F00106A061F00701D026F0100638
:100410006C2D0AD0682D08D04C2D39D06A2D35D0DE
:10042000742D35D07A2D33D016E0E1682F46204662
:100430008847B84205460AD16C2F27D04FF4806018
:10044000E168064320468847054605E027E06C2F13
:100450001AD04FF4807006430DB3A5F1410019285E
:1004600002D8203546F400664A46294620462660D2
:100470004E46FFF78BFE80B101280BD0F61D26F00B
:10048000070000F1080965E74020E4E78020D7E78E
:100490000020D5E706F104095CE7284661E7206AF9
:1004A000BDE8F0877047704770472DE9F0470D466B
:1004B00099469246044600F124080168880604D54E
:1004C000E06921F01001216000E00120A84201DD77
:1004D000471B00E00027A1697A1902EB0900081AFE
:1004E000A0612078C00602D42046FFF79FFE0026B8
:1004F00008E0D4E901211AF806009047206A401C60
:10050000761C20624E45F4DB2078C0060AD52046D2
:10051000FFF78CFE06E0D4E9012130209047206AE5
:10052000401C2062381EA7F10107F4DC07E0D4E983
:10053000012118F805009047206A401C2062281EFF
:10054000A5F10105F3DC2046FFF786FE20780006C2
:1005500002D50220BDE8F0870120FBE701694A1CB3
:1005600002610878704700B58FB0CDE901310021F4
:10057000059105497944CDE9031011466846FFF716
:10058000E1FE0FB000BD0000E5FFFFFF0A6802F8C2
:10059000010B0A60704710B5436913B1AFF30080D7
:1005A00001E0FFF76AFE012010BD127800F124017E
:1005B0000A7000224A700122EDE711684FF0FF3205
:1005C000E9E7754600F02CF8AE460500694653464B
:1005D00020F00700854618B020B5FFF701FEBDE802
:1005E00020404FF000064FF000074FF000084FF09A
:1005F000000BAC46ACE8C009ACE8C009ACE8C009E7
:10060000ACE8C00921F007018D46704710B50446DB
:10061000AFF300802046BDE81040FFF7CCBD0000DE
:10062000004870474800002001491820ABBEFEE793
:100630002600020070470000FEE70000704700003F
:1006400000680068406A00B2704700008446CCE948
:10065000001208463C21ACF8083001F0FFB8000059
:1006600080B542680189104600F038F9B0FA80F090
:10067000400980BD202000F01DB80000EFF310807D
:1006800072B600BFFEE70000B0B5044600F03AF9CC
:10069000054640F20800C2F200000078611C18BF55
:1006A000044400BF00F02EF9401BA042FAD3B0BDB5
:1006B0007047000040F21441C4F201010A6802428E
:1006C00014BF08607047FFF7F3BF00002DE9F04F3B
:1006D00082B00E68002E00F0FD8041F20042C4F2AC
:1006E0000102042340F2004E904208BF03234FF65C
:1006F000FF7CC4F2010E009300240123C1F2100C10
:100700004FF0000A4FF000094BE000BF41F2000239
:10071000C4F20102009F904208BF022704F00C03BC
:100720000F229A402BEA020207FA03F34FEA9A05D6
:100730001A4346F825204E6840F20C45F202DEF8D6
:10074000082054BF22EA080242EA0802C4F2010566
:10075000CEF808202A68B30254BF22EA080242EA0F
:1007600008022A60B303DEF8042054BF22EA08021C
:1007700042EA0802F303CEF80420DEF800204FF02E
:10078000010354BF22EA080242EA0802CEF8002020
:100790000E680AF1010A36FA0AF204F1040400F0C4
:1007A000998003FA0AFB16EA0B08F1D04E686645F9
:1007B00012DC122E56D8DFE806F0350B4D495555A0
:1007C000555555555555555555555545510000BF2D
:1007D000D1F80C9046E000BF4FF6FF72C1F2210243
:1007E00096420FDC0022C1F2110296421AD000227A
:1007F000C1F21202964215D00022C1F221029642A5
:1008000010D02FE00022C1F2220296420AD000222C
:10081000C1F23102964205D00022C1F23202964264
:1008200020D100BF8A684AB1012A14BFC0F814B0B1
:10083000C0F810B04FF0080914E000BF4FF00409F1
:1008400010E000BFCA6802F104090BE04FF0000994
:1008500008E000BFCA6802F1080903E0CA6802F1B3
:100860000C0900BF02462646B8F5807F24BF04323B
:10087000203E17680F25B54027EA050509FA06F658
:1008800035431560CA79D2067FF582AF41F218036D
:10089000C4F202031A68AEF57E7642F001021A60D5
:1008A0001A6802F001020192019A2AF0030256F836
:1008B00002B040F60002C4F20102904208D040F6B5
:1008C0000042C4F2010290427FF420AF012725E7E5
:1008D000002723E702B0BDE8F08F000080680840E1
:1008E00018BF012070470000C26802EA010391436B
:1008F00041EA034101617047002A08BF0904016110
:100900007047000040F23820C2F2000000687047D3
:10091000002804BF01207047F0B581B0044690F86C
:100920003D0028B9002084F83C00204600F090F9F2
:10093000242084F83D002068016821F00101016055
:10094000016841F400410160016821F40041016047
:1009500000F054FB636848F2A16CC0F2010C40F651
:100960000011C0F23D0163453CBF48F28041C0F236
:100970001E01884202D2012001B0F0BD4DF6836114
:10098000C4F21B31A0FB01122168970CD1F804E0DE
:100990004FF496762EF03F0545EA92454D60774339
:1009A00048F638160D6AC0F24106A7FB067625F018
:1009B0003F07634538BF960C721C3A430A62CA6906
:1009C00048F2A0664CF6FF77C0F20106B34222EA75
:1009D00007020BD801385B00B0FBF3F001306FF376
:1009E0001F30042898BF04201BE000BFA76801380F
:1009F00057B119277B43B0FBF3F001306FF31F3081
:100A000070B100F5804007E003EB4303B0FBF3F067
:100A100001306FF31F3018B100F5004001E000BF56
:100A200001201043C8610868D4E9072320F0C00002
:100A3000104318430860886848F2FF3204F10C073D
:100A400090438CCF18431043A6698860C86820F093
:100A5000FF0038433043C860086840F00100086078
:100A600000202021206484F83D10206384F83E009B
:100A700001B0F0BD2DE9F04383B01E46174689460C
:100A80000446FFF73FFF94F83D10202924D1054686
:100A9000206800BF816989071AD5FFF733FF411B22
:100AA00020681A29F6D381698907F3D5002020210F
:100AB000206384F83D1084F83E00216C41F0200151
:100AC000216484F83C00022003B0BDE8F08300BF3D
:100AD00094F83C10012903D1022003B0BDE8F08353
:100AE000012184F83C100168C90703D1016841F075
:100AF00001010160016840F2020821F40061016017
:100B0000212184F83D10102184F83E100021216439
:100B100067626685618DC0F201082185A8F1021126
:100B2000E162E16A0A9E11F5803F18BF01291DD1DB
:100B3000016841F48071016020464FF001110022EC
:100B40003346009501F05CFA50B120680068C0059A
:100B500044BF4FF400702064012003B0BDE8F0836F
:100B60002069B0F5804F07D1FE2015E00829DFD0BD
:100B7000216B1229DCD0DFE7062000EAD9102168BA
:100B8000F030086108F10601204632462B4601F09C
:100B90001DFB0028E0D1FF20216800EA0900086160
:100BA0002046414632462B4601F010FB0028D3D1A7
:100BB00000200290206841690291806902900298A9
:100BC00006E000BF204631462A4601F0BBF918BBBB
:100BD000208D68B3204631462A4601F063FBD8B920
:100BE000606A2168024612F8013B0B616262628D05
:100BF000013A6285228D531E23854F697F07E1D517
:100C00001B04DFD0437802300B616062608D0138D5
:100C10006085901E2085D5E7206C04289CD1206833
:100C2000016841F400710160012003B0BDE8F08368
:100C30002068016841F400710160202084F83D00C3
:100C4000002084F83E0084F83C0003B0BDE8F08347
:100C500010B586B0006845F20041C4F20001884238
:100C60004FF00000CDE90400CDE9020002D006B04B
:100C700010BD00BF41F21804C4F20204206802A9AA
:100C800040F008002060206800F008000190019802
:100C90004FF440700290122003900320059040F61C
:100CA0000040C4F20100FFF711FD0420C4F201006E
:100CB000016841F0E06141F002010160606840F4C8
:100CC00000106060606800F400100190019806B0A8
:100CD00010BD000040F2080040F23821C2F20000CE
:100CE000C2F2000100780A681044086070470000F2
:100CF00080B542F20000C4F20200016841F0100128
:100D00000160032000F08CF80F2000F005F800F0DF
:100D100027F8002080BD000070B540F20806C2F23E
:100D2000000640F23C013278C2F200014FF47A73BF
:100D30000968B3FBF2F20446B1FBF2F1084600F099
:100D400085FB0F2C4FF0010508D838B94FF0FF3064
:100D500021460022002500F037F87460284670BD57
:100D600082B041F21800C4F202000168022241F090
:100D700001010160016801F00101019101994168DF
:100D800041F080514160406800F080500090009830
:100D90000420C4F20100016862F31A61016002B02C
:100DA00070470000002848BF704700F01F01012273
:100DB00002FA01F11C2202EAD0004EF20012CEF239
:100DC000000281507047000010B54EF60C5CCEF268
:100DD000000CDCF80030C3F3022E8EF00704042C64
:100DE00028BF0424BEF103034FF0FF3E0EFA04F4C3
:100DF00038BF0023A14399400EFA03F39A431143ED
:100E000000F00F0200F160430901043A03F5644366
:100E10006244002848BF02F10C03197010BD0000A5
:100E20004EF60C51CEF200010A684FF6FF031A404D
:100E300060F30A2242F0806040F0FD700860704765
:100E4000002804BF012070472DE9F04381B042F231
:100E50000008C4F202080446D8F800000D4600F06D
:100E6000070081420CD9D8F8000020F00700284381
:100E7000C8F80000D8F8000000F00700A8426CD1C4
:100E8000206841F204098107C4F2020917D541071D
:100E900005D5D9F8001041F4E061C9F80010010748
:100EA00005D5D9F8001041F46051C9F80010D9F8FF
:100EB0000010A26821F0F0011143C9F80010C0072A
:100EC00042D1D8F8000000F0070085420CD2D8F8D3
:100ED000000020F007002843C8F80000D8F8000000
:100EE00000F00700A84238D12068410707D5D9F89B
:100EF0000010E26821F4E0611143C9F80010000716
:100F000008D5D9F80000216920F4605040EAC100FA
:100F1000C9F80000D9F8002002F00C00082841F2BE
:100F20000020C0F27A004DD143F6B833C2F38341BA
:100F3000C0F60003595CD20338D440F60010C0F26A
:100F40003D0048433EE000BF606859F8041C022899
:100F500008D0012826D1890306D4012001B0BDE8BC
:100F6000F08300BF8901F8D5D9F8001021F0030102
:100F70000843C9F80000FFF7C5FC064641F2883770
:100F8000D9F80000616800F00C00B0EB810F98D038
:100F9000FFF7B8FC801BB842F2D9032001B0BDE8CE
:100FA000F08300BF8907D8D5DEE700BFD9F800205D
:100FB00043F6B633C2F34042C0F600039A5C48439E
:100FC000B0FBF2F0D9F8001043F69E32C1F30311E2
:100FD000C0F60002515C40F23C0220FA01F140F2FE
:100FE0000C00C2F200000068C2F200021160FFF7BC
:100FF00093FE002001B0BDE8F083000040F23C0009
:1010000041F20401C2F20000C4F202010068096862
:1010100043F6AE32C1F30221C0F60002515CC84073
:101020007047000040F23C0041F20401C2F20000AF
:10103000C4F202010068096843F6AE32C1F3C2216E
:10104000C0F60002515CC84070470000002804BF91
:10105000012070472DE9F04182B00446007841F24A
:101060000006C007C4F202060CD0706800F00C0045
:10107000042840F081803068800303D56068002830
:1010800000F04681207880071BD5706810F00C0FA7
:1010900009D0706800F00C00082840F08780706864
:1010A000C00300F183803068800703D520690128E0
:1010B00040F02E813068616920F0F80040EAC100FC
:1010C00030602078000713D4207840072CD4E569DD
:1010D000002D00F01881706800F00C00082840F026
:1010E000A780012D40F00481012002B0BDE8F0810D
:1010F000A069002800F084800020C4F24220012171
:10110000C0F88014FFF7FEFB054600BF706A800739
:1011100000F1B280FFF7F6FB401B0228F6D903204E
:1011200002B0BDE8F08100BFF0695FEAC00808D4F2
:10113000F06940F08050F061F06900F0805000905C
:10114000009847F20007C4F200073868C00549D488
:10115000386840F480703860FFF7D4FB054600BF64
:101160003868C0053ED4FFF7CDFB401B6428F7D993
:10117000032002B0BDE8F081706800F00C00082880
:1011800003D17068C0033FF576AF6168306800290D
:1011900000F00C81B1F5A02F00F00081B1F5803F87
:1011A00040F01A8140F480301CE100BF2069002823
:1011B00040F20000C4F2422000F08880012101606A
:1011C000FFF7A0FB054600BF306880073FF572AF10
:1011D000FFF798FB401B0228F6D9032002B0BDE8B8
:1011E000F08100BFE168306A002900F09D80052988
:1011F00000F09280012940F0AF8040F00100B1E0A2
:101200000020C4F242200021C0F88014FFF77AFBCE
:10121000054600BF706A80077FF556AFFFF772FB87
:10122000401B0228F6D9032002B0BDE8F08100BFC0
:101230000027C4F2422700203866FFF763FB022D27
:1012400005460DD13068800140F1DE80FFF75AFB82
:10125000401B02284FF00300F4D902B0BDE8F08132
:10126000306880014FD5FFF74DFB401B02284FF03F
:101270000300F5D9F1E700BF40F23C00C2F20000E4
:10128000006844F6D351C1F26201A0FB0101480A93
:10129000019000BF00BF0198411E002801913FF45A
:1012A00013AF00BF0198411E002801913FF40CAF1D
:1012B00000BF0198411E002801913FF405AF00BF17
:1012C0000198411E00280191E4D1FDE60021016052
:1012D000FFF718FB054600BF306880077FF5F1AEC9
:1012E000FFF710FB401B02284FF00300F4D9B4E7CE
:1012F0007068216A00F480328A4209D1616A00F480
:101300007010884204D1002002B0BDE8F08100BF17
:10131000012002B0BDE8F08140F004003062306A84
:1013200040F001001EE000BF20F001003062306A92
:1013300020F004003062FFF7E5FA054641F28837F5
:10134000306A800720D5FFF7DDFA401BB8424FF026
:101350000300F5D981E700BF20F001003062306A58
:1013600020F004003062FFF7CDFA054641F28837DD
:10137000306A800708D4FFF7C5FA401BB842F7D996
:10138000032002B0BDE8F081B8F1000F3FF59FAE39
:10139000F06920F08050F06199E600BF40F48020B1
:1013A0003060306840F480301CE000BF20F48030B2
:1013B0003060306820F480203060FFF7A3FA0546E3
:1013C000306880037FF55EAEFFF79CFA401B64280F
:1013D0004FF00300F4D940E720F4803030603068EB
:1013E00020F480203060FFF78DFA054630688003D6
:1013F0003FF548AEFFF786FA401B6428F6D9032074
:1014000002B0BDE8F08100BF206AB0F5803F05D191
:101410007168A26821F40031114371607168626AD9
:1014200021F4741111430843706001203866FFF7FE
:1014300069FA0446306880013FF565AFFFF762FA4C
:10144000001B02284FF00300F4D906E7411E0020DC
:10145000B0EB116F1CBF012070474EF21002CEF2AC
:10146000000251604EF62351CEF20001F0230B70C2
:10147000072190601160704790F83C20012A04BF5A
:1014800002207047B0B501F108053CCDD1E900CE8E
:1014900023F47C5322F470521A432EF4F0431A437F
:1014A0002CF4E0431A4324F4C0431A432A43C96985
:1014B00022F48042036811435964002180F83C10F3
:1014C0000020B0BD90F83C20012A4FF0020236D037
:1014D00010B580F83D200268D2F804E0D2F808C0C8
:1014E0000C682EF07003234340F2FF74C4F2000432
:1014F000A24253600ADCB2F1804F13D040F20043A5
:10150000C4F200039A420DD011E000BF42F600433E
:10151000C4F201039A4205D040F60003C4F200036E
:101520009A4204D149682CF080031943916001214B
:10153000002280F83D1080F83C20BDE810401046A5
:1015400070470000C1B1042908D0082914BF452202
:101550004422825C012A05D016E000BF4322825C4F
:10156000012A11D10222082910D0042914BF80F8C1
:10157000452080F843200BE090F84220012A03D157
:10158000022280F8422003E00120704780F84420C6
:10159000006801F00F010422036A02FA01F123EA54
:1015A00001020262026A11430162416C40F2FF7261
:1015B000C4F2000241F40041904241640ADCB0F1FF
:1015C000804F13D040F20041C4F2000188420DD098
:1015D00013E000BF42F60041C4F20101884205D089
:1015E00040F60001C4F20001884206D1816801F092
:1015F0000701062904BF00207047016841F001017E
:10160000016000207047000010B5026801F00F0E65
:101610004FF0040C146A0CFA0EF324EA030313626D
:10162000136A1362146A41F211131C4206D1D2F8F4
:1016300020C040F244441CEA040F0DD0146A1C423E
:1016400011D1136A40F2444423420CD1136823F0B1
:101650000103136007E000BF546C24F40044546499
:10166000146A1C42EDD0082912D004290AD000299E
:101670004FF0010114BF80F8451080F8421000209F
:1016800010BD00BF012180F84310002010BD00BF35
:10169000012180F84410002010BD0000002804BF84
:1016A000012070472DE9F04F81B090F83D2042B9FC
:1016B000002280F83C2004460D4600F09DF82946A3
:1016C0002046022280F83D20026844F20705936814
:1016D00042F6004CAB43936040F2FF731468C4F2CF
:1016E00000039A42C4F2010C14DCB2F1804F19D00D
:1016F00040F20045C4F20005AA4213D09A4217DC1A
:10170000B2F1804F1CD040F20043C4F200039A4271
:1017100016D01AE0624505D040F60005C4F2000577
:10172000AA42EBD1856824F070042C439A42E7DD8D
:10173000624505D040F60003C4F200039A4204D18A
:10174000036924F4407543EA050424F080038469A6
:10175000D0F804E0C568234362451360D562C2F83F
:1017600028E002D14369CCF830304FF0010EC2F8C6
:1017700014E01569ED0703D0156925F00105156121
:1017800095689469D2F820C0D1E90038D1E9027B8C
:1017900043EA050A8D694FF6FF7924EA090447EA0E
:1017A00005254FF6FC47BD43D1E9077644EA0B0413
:1017B0000B692C4344EA07242CF02207496944EAC8
:1017C000031347EA080743EA063347EA0111C2F860
:1017D00008A09361116280F846E080F83EE080F84E
:1017E0003FE080F842E080F843E080F83DE00020F0
:1017F00001B0BDE8F08F000080B586B040F6000172
:101800000068C4F2000100228842CDE9042203925C
:10181000029201D006B080BD41F21800C4F202006D
:10182000436843F004034360436803F004030193F7
:10183000019B036843F008030360006800F00800A0
:1018400001900198C020CDE9020201F5823002A981
:101850000492FEF73BFF06B080BD000080B590F813
:101860003E2090F83F3090F842E090F843C00429C1
:101870000AD0B9B9012A4FF0010208BFBEF1010F29
:1018800034D0104680BD00BF012B4FF0010208BFCD
:10189000BCF1010FF5D1022180F83F1080F8431010
:1018A00000681EE0012A4FF0010208BF012BE8D1B9
:1018B000BEF1010FE5D1BCF1010FE2D1022280F8A7
:1018C0003E2080F83F2080F8422080F8432091B1EC
:1018D0000068016A21F001010162016A41F0010121
:1018E000016210216FF0100209E000BF022180F8B0
:1018F0003E1080F84210006801216FF00102036A77
:101900001A400262026A114301620168002241F03A
:1019100001010160104680BD90F83C30012B04BFEE
:10192000022070474FEAB202032A00F2F1802DE94B
:10193000F043DFE802F003A53B7500BF036842F601
:1019400000461D6A1A6AC4F2010622F001021A62F8
:101950001A465C6852F818CFB3428E68D1F800E09E
:1019600025F0020545EA06050CD1CE68D1E90578D7
:1019700024F4407425F00C0526F004063C4335435E
:1019800044EA08042CF0730747EA0E075C609F6185
:101990004F6809695F631D629F6947F008079F618F
:1019A0009F6927F004079F61A6E000BF036842F625
:1019B00000461D6A1A6AC4F2010622F480721A6295
:1019C0001A46D3F804C052F81CEFB3428E680C6874
:1019D00025F4007545EA06250FD1CE68D1E90598B2
:1019E000360240F2FF4725F44065BE4335432CF4F0
:1019F000405748EA090647EA061C2EF073072743BA
:101A0000C3F804C0DF614F680969DF631D62DF69E5
:101A100047F00807DF61DF6927F00407DF616BE04B
:101A2000036842F60047D3F820C01A6AC4F20107DF
:101A300022F480521A621A465C6852F81C5FD1F890
:101A400000E08E68BB4204D14F6924F4804444EA2C
:101A500087142CF4005747EA063725F4E64646EA91
:101A60000E265C60DE614E6809691E641F62DF69D4
:101A700047F40067DF61DF6927F48067DF613AE0E0
:101A8000036842F600461D6A1A6AC4F2010622F093
:101A900010021A621A46D3F804C052F8184FB34223
:101AA0008E68D1F800E025F0200545EA06150FD133
:101AB000CE68D1E905986FF0400725F0C00507EA28
:101AC000061635432CF4406748EA090647EA860CB7
:101AD00024F4E64444EA0E27C3F804C09F614F682B
:101AE00009699F631D629F6947F400679F619F6951
:101AF00027F480679F610902136819431160002170
:101B0000BDE8F043002280F83C200846704700BF43
:101B10000121002280F83C2008467047002804BFBD
:101B20000120704710B590F83D1031B9002180F8C0
:101B30003C10044600F070F82046022180F83D1069
:101B4000016840F2FF740B68C4F2000442F6004CD6
:101B5000A142C4F2010C15DCB1F1804F1AD040F261
:101B60000042C4F20002914214D0A14218DCB1F14B
:101B7000804F1DD040F20042C4F20002914217D0C3
:101B80001AE000BF614505D040F60002C4F2000231
:101B90009142EAD1826823F070031343A142E6DD4B
:101BA000614505D040F60002C4F20002914203D123
:101BB000026923F440731343846923F08002D0F850
:101BC00004E0C368224361450A60CB62C1F828E0A3
:101BD00002D14269CCF8302001224A610B69DB074F
:101BE00003D00B6923F001030B6180F8462080F8D5
:101BF0003E2080F83F2080F8402080F8412080F887
:101C0000422080F8432080F8442080F8452080F866
:101C10003D20002010BD0000006842F60041C4F2E3
:101C20000101884218BF704781B041F21800C4F228
:101C30000200016841F400610160006800F4006086
:101C40000090009801B07047002804BF0120704741
:101C500010B5044690F8410028B9002084F84000EF
:101C6000204600F063F8242084F841002068D4E97D
:101C70000212C36823F40053C360036923F4405382
:101C80001A430261D4E904231143C268194341F2A3
:101C90000C639A431143C1604169A26921F4407108
:101CA000114343F60002C4F201029042416103D0A5
:101CB000FFF7A4F902E000BFFFF7B4F9D4E900236D
:101CC000192148439900B0FBF1F048F21F5CC5F2BE
:101CD000EB1CA0FB0C314FF69C734909C0F6FF7357
:101CE00001FB0300322303EB0010A0FB0C03F020E8
:101CF00000EA531000EB0110C3F343110844906055
:101D00001069202120F490401061506920F02A00D1
:101D10005061D06840F40050D0600020606484F8C6
:101D2000411084F84210606310BD000070B586B0A9
:101D300040F60004C4F20104006804F54051002696
:101D400088420596CDE90366029601D006B070BDC3
:101D500041F21800C4F20200016802AD41F4804172
:101D60000160016801F4804101910199016841F02D
:101D7000040101600068294600F004000190019808
:101D80004FF400700290022003900320059020463B
:101D9000FEF79CFC4FF48060CDE902062046294600
:101DA0000496FEF793FC06B070BD00002DE9F043E9
:101DB00081B0044690F84100202809D100294FF055
:101DC000010018BF002A07D101B0BDE8F08300BFB1
:101DD000022001B0BDE8F0830020606421201D4690
:101DE0000E4684F841001746FEF78CFDA784E78471
:101DF000A1688146B1F5805F02D1206900285DD0DD
:101E000037460020E28C2168002A5DD06A1C24D06D
:101E1000002D4AD0804600BF0868000608D4FEF7AF
:101E200071FDA0EB0900A8427AD82168C868F3E7E1
:101E300017B117F8010B04E038F8020B00276FF315
:101E40005F204860E08C0138E084E08C0028E3D11A
:101E50003AE000BF0A68120609D40A68120606D4DE
:101E60000A6812065CBF0A685FEA0262F2D51FB117
:101E700017F8012B05E000BF30F8022B00276FF3A5
:101E80005F224A60E28C013AE284E28C002AE4D1CB
:101E90001AE000BF30F8022B00276FF35F224A6080
:101EA000E28C013AE284E28C72B10A68120635D5FE
:101EB000002FEFD017F8012BF1E700BF00273046C5
:101EC000E28C2168002AA1D1086840061ED42DB3F7
:101ED000681C14D1086840062AD40868400627D434
:101EE0000868400624D4086840064FF00000F1D589
:101EF0000DE000BF2068C1680068400618D4FEF7F6
:101F000001FDA0EB0900A842F4D909E0002020213E
:101F100084F8411001B0BDE8F08300BFFEF7F2FC89
:101F20000320202184F8411001B0BDE8F08300BFF8
:101F30000020202184F8411001B0BDE8F0830000AA
:101F4000FEE7000070B50368044653F8140F40071D
:101F500011D40E46481C29D086BB00BF1868400526
:101F600027D4FEF7CFFC236853F8140F400737D56A
:101F700018684007F2D5002070BD00BF1868400700
:101F8000F9D41868400514D418684007F3D41868C9
:101F900040050ED418684007EDD41868400508D4F1
:101FA000186840074FF0000048BF70BD1868400532
:101FB000E4D56FF480601860042012E0154603E059
:101FC00053F8140F4007D6D418684005F1D4FEF733
:101FD00099FC401B2368B042F2D958694007EFD4FE
:101FE000202000212022216384F83D2084F83E1027
:101FF000226C10432064012084F83C1070BD000066
:102000002DE9F041054600681E46144601F47F02A2
:1020100001338FB242D0DDF81880B2F5803F40F036
:10202000878040693840C01BB0FA80F04009844284
:1020300040F0C8804EB924E040693840C01BB0FA77
:1020400080F04009844240F0BD80FEF75BFCA0EBCD
:1020500008012868B142EFD941693940C91BB1FA7A
:1020600081F149098C42E7D19BE000BF40693840CB
:10207000C01BB0FA80F0400984424FF0000040F0ED
:10208000A280FEF73FFC286841693940C91BB1FABC
:1020900081F149098C42E9D183E000BFB2F5803F6C
:1020A00024D100BF41693940C91BB1FA81F1490906
:1020B0008C4240F0878041693940C91BB1FA81F1F7
:1020C00049098C4240F07E8041693940C91BB1FA10
:1020D00081F149098C4275D141693940C91BB1FA76
:1020E00081F149098C42DDD06CE000BF8169394043
:1020F000C91BB1FA81F149098C4263D18169394028
:10210000C91BB1FA81F149098C425BD1816939401F
:10211000C91BB1FA81F149098C4253D18169394017
:10212000C91BB1FA81F149098C42DFD04AE000BFF6
:1021300080693840C01BB0FA80F04009844241D128
:1021400046B923E080693840C01BB0FA80F04009EE
:10215000844237D1FEF7D6FBA0EB08012868B142D4
:10216000F0D981693940C91BB1FA81F149098C4222
:10217000E8D116E080693840C01BB0FA80F0400911
:1021800084424FF0000018BFBDE8F081FEF7BAFBB3
:10219000286881693940C91BB1FA81F149098C422B
:1021A000E8D100202021286385F83D1085F83E0005
:1021B000296C41F02001296485F83C000120BDE82C
:1021C000F08100BF0020BDE8F0810000F0B581B0D3
:1021D000044600681D4643698FB203EA0701B9420D
:1021E00002D1002001B0F0BD4169164601323CD059
:1021F000490512D47EB300BFFEF784FB411B206863
:10220000B14203D941693940B9422BD141693940C2
:10221000B942E6D041694905EED5016841F4007143
:1022200001606FF48061416104200021202221635C
:1022300084F83D2084F83E10226C1043206484F81A
:102240003C10012001B0F0BD41693940B942C8D00D
:1022500041694905E1D4FEF755FB206841693940E1
:10226000B942F1D02020E0E741694905D5D4416960
:102270003940B942B5D041694905CED441693940A8
:10228000B942AED041694905C7D441693940B94224
:10229000A7D041694905C0D441693940B942E3D169
:1022A0009FE7000070B50368044653F8140F00065A
:1022B00011D40E46481C29D086BB00BF18684005C3
:1022C00027D4FEF71FFB236853F8140F000637D5F9
:1022D00018680006F2D5002070BD00BF186800061F
:1022E000F9D41868400514D418680006F3D41868A7
:1022F00040050ED418680006EDD41868400508D4CF
:10230000186800064FF0000048BF70BD186840050F
:10231000E4D56FF480601860042012E0154603E0F5
:1023200053F8140F0006D6D418684005F1D4FEF710
:10233000E9FA401B2368B042F2D958690006EFD48D
:10234000202000212022216384F83D2084F83E10C3
:10235000226C10432064012084F83C1070BD000002
:102360002DE9F04786B04FF0000841F21800CDE9A2
:102370000488CDE90288C4F20200016840F6004AF0
:1023800041F0200101600168C4F2010A01F020015E
:10239000019101990168AAF5806641F0040101608C
:1023A0000168002201F0040101910199016849F6D8
:1023B000080541F008010160006849F6080100F0D5
:1023C0000800019001983046FEF796FA50464FF407
:1023D000804100224FF48049FEF78EFA029502AD4B
:1023E00001270224304629460397CDE90444FEF72D
:1023F0006DF94FF48060CDE90208504629460497F4
:10240000FEF764F950462946CDE90297CDE9044428
:10241000FEF75CF9202002900020C1F22100CDE9F6
:10242000030750462946FEF751F9172000210022E4
:10243000FEF7CAFC1720FEF7B5FC06B0BDE8F08732
:1024400080B540F20C1045F20041C2F20000C4F227
:10245000000148F2A06200234FF4804CC0F2010258
:1024600080E80E00C0E9033CC0E90533C0E907334A
:10247000FEF74EFA002808BF80BDBDE88040FEF799
:10248000FDB80000B0B598B042F6004540F26010CB
:10249000C4F201050021C2F200004FF6FF72119153
:1024A000CDE90F11CDE90D11CDE90B11CDE90911E0
:1024B000CDE90711CDE90511CDE90311CDE90111F0
:1024C000C0E90051C0E90212C0E904118161FFF7BF
:1024D00025FB002818BFFEF7D1F840F26010C2F2C9
:1024E000000010A9FEF7EEFF002818BFFEF7C6F89F
:1024F0006020099040F260100024C2F2000009A997
:102500000822CDE90A44CDE90C44CDE90E44FFF799
:1025100003FA002818BFFEF7B1F80594CDE903448B
:10252000CDE90144089440F260144FF40050C2F227
:102530000004069001A92046FEF79EFF002818BF60
:10254000FEF79CF821680020A942CDE916001590FD
:10255000149001D018B0B0BD41F21800C4F20200CE
:10256000016841F008010160006814A900F008004A
:10257000139013984FF40040149002201590179078
:10258000A5F50050FEF7A2F818B0B0BD80B58CB02C
:1025900040F2A81040F600020021C2F20000C4F28E
:1025A0000002C0E9002103224FF6FF73CDE90321A9
:1025B0000122CDE90011C0E9021301618161CDE979
:1025C0000521CDE90711CDE909210B9103A9FFF7F9
:1025D00065F8002818BFFEF751F840F2A810C2F2C3
:1025E00000006946FEF76EFF002818BFFEF746F8A8
:1025F0000CB080BD80B540F2F01043F60001C2F28D
:102600000000C4F2010100234FF00C0C4FF4E13242
:1026100080E80E00C0E90333C0E905C3C361FFF7DA
:1026200013FB002808BF80BDBDE88040FEF726B838
:10263000FEE70000FEE70000704700002DE9F04FC4
:1026400083B040F2A808C2F2000808F1180940F669
:1026500000444846C4F20104FDF7F2FF98F8242034
:10266000B8F80210042A824640F092801FFA8AF0DD
:102670000AEBD03000B201EBD131401009B2A0EB2F
:102680006106002E00F09C8008F13C0B00215846AA
:10269000CDF800900025012EB8BF012100F04CFAC2
:1026A0003046002E48BF704200EB80074FEA870992
:1026B000D8F830004946012EB8BFA5EB8701084481
:1026C000C8F8300001265846002188F8386000F02C
:1026D000E9F9B9F1010F88BFBE00DDF800900027CD
:1026E00006E000BF0120FDF7CFFF0137B74265D0FC
:1026F00020464FF400410122FEF7FEF802950298B1
:10270000B0F5967F1BDA0298013002900298B0F57E
:10271000967F14DA0298013002900298B0F5967F05
:102720000DDA0298013002900298B0F5967F06DA31
:102730000298013002900298B0F5967FE3DB2046C4
:102740004FF400410022FEF7D7F801950198B0F54B
:10275000967FC7DA0198013001900198B0F5967F15
:10276000C0DA0198013001900198B0F5967FB9DA8E
:102770000198013001900198B0F5967FB2DA019886
:10278000013001900198B0F5967FE3DBAAE700BF26
:10279000CAF341700AB25044C2F3417200B211440C
:1027A000801009B2A0EBA100002809D04FF002016F
:1027B00008F12400C8BF012100F086FBA8F802A0A0
:1027C0004846FDF74DFFD8F80810B8B119B9FEF723
:1027D00099F8C8F80800FEF795F8D8F80810401ADC
:1027E000B0F5487F20D998F80000E8B908F1240036
:1027F000042100F069FB012014E000BFA1B1FEF745
:1028000081F8D8F80810401A4009182807D898F815
:10281000000020B908F12400032100F055FB00203E
:10282000C8F8080088F8000020464FF48061FEF7E1
:1028300055F840F240060546C2F2000658B9307815
:10284000012808D11420FDF71FFF20464FF48061B6
:10285000FEF744F820B1357003B0BDE8F08F00BF3B
:1028600008F12400052100F02FFB357003B0BDE80E
:10287000F08F0000704700002DE9F04184B040F275
:10288000A80640F20007C2F20006C2F2000796F85E
:102890002400397840F600088842C4F2010849D083
:1028A000012825D0042833D140F26010C2F2000084
:1028B0000821FEF7A9FE4FF400400090012001908E
:1028C000032008F580650024039069462846029499
:1028D000FDF7FCFE28464FF400410022FEF70CF8FD
:1028E00006F13C00002100F0DDF834631DE000BF7C
:1028F000002002904FF4004000900220019003203D
:10290000039008F580606946FDF7E0FE0DE000BF2A
:1029100040F26010C2F200000821FEF775FE718DD2
:1029200006F13C00322200F0CFF896F82400FF2197
:102930007970387001284CD196F82800B97888420F
:1029400029D098B106F13C00002100F0ABF840F22C
:102950006010C2F2000001684A6C42F400424A640E
:102960000821FEF7EFFD01220EE000BF40F26015E6
:10297000C2F2000528460821FEF746FE286800221C
:10298000416C21F40041416440460821FDF7B4FF49
:1029900096F82800B870F08CB988884219D00146A2
:1029A0000A2898BF0A2144F62062914228BF1146A6
:1029B00044F24022C0F20F02B2FBF1F140F2601289
:1029C000C2F2000213680139D962D1604908D963A3
:1029D000B88096F8240004280BD096F82D1078784B
:1029E000814206D006F13C0000F0A6F896F82D00D2
:1029F0007870718DB088814208D196F82C00F978F2
:102A0000884218D104B0BDE8F08100BF06F13C0552
:102A10002846322200F058F80220FDF735FE718D6D
:102A20002846322200F050F8708DB08096F82C00C5
:102A3000F9788842E6D0C1004FF001120125002448
:102A400040F20113042838BF22FA01F538BF23FAF7
:102A500001F4EAB240464FF40061FDF74DFFE2B2E7
:102A600040464FF48051FDF747FF96F82C00F87070
:102A700004B0BDE8F0810000FEF72CB970470000FB
:102A800070B5DDF820C0DDE9064EDDE90465816042
:102A900082810361868285618483C0F820E0A0F88A
:102AA00024C070BD0A46002918BF012283688189AD
:102AB0001846FDF721BF0000134601600021C02227
:102AC000037100F04BB80000B0B504460846154647
:102AD00000F010FF0021C4F27A4100F02DFE4FF605
:102AE000F451C4F2342100F019FF41F6B861C3F685
:102AF000056100F013FF46F26661C3F6A66100F0BF
:102B00001BFE0021CBF6807100F0B4FD00F0D6FE74
:102B100080F3050000FB05F141F27B425143C1F314
:102B2000C44141EA002040F4C02220461021BDE803
:102B3000B04000F013B80000D0F810C0838AB1FA9A
:102B400081F0420960461946FDF7D6BEC022002931
:102B50004FF0000108BF4022AFF3008070B582B093
:102B600041F080038DF80230130E90F804E08DF8E8
:102B70000330130C8DF80430130A4FF0050C8DF858
:102B800005305FEACE736FF05F048DF800C08DF8FA
:102B900001E08DF8062008BF40245FEA8E7358BF1D
:102BA00084F070045FEA4E7358BF84F038045FEA23
:102BB0000E7348BF84F01C045FEACE6358BF84F0F4
:102BC0000E045FEA8E634FF0070C48BF84F00704E1
:102BD000E3B2CEF380158CEA4406B5EBD31F08BFF1
:102BE000660086EA0E035BB27500002B48BF8CEAD4
:102BF0004605EBB201F001068CEA4504B6EBD31FA3
:102C000008BF6C00E3B2C1F340068CEA4405B6EBA2
:102C1000D31F08BF6500EBB2C1F380068CEA450400
:102C2000B6EBD31F08BF6C00E3B2C1F3C0068CEA59
:102C30004405B6EBD31F08BF6500EBB2C1F3001625
:102C40008CEA4504B6EBD31F08BF6C00E3B2C1F3B6
:102C500040168CEA4405B6EBD31F08BF6500EBB203
:102C6000C1F380118CEA4506B1EBD31F08BF6E009B
:102C700071B28CEA4603002948BF7300D9B2C2F38F
:102C800000668CEA4305B6EBD11F08BF5D00E9B2D0
:102C9000C2F340638CEA4506B3EBD11F08BF6E0058
:102CA000F1B2C2F380638CEA4605B3EBD11F08BFD3
:102CB0007500E9B2C2F3C0638CEA4506B3EBD11FDD
:102CC00008BF6E00F1B2C2F300738CEA4605B3EBA5
:102CD000D11F08BF7500E9B2C2F340738CEA450604
:102CE000B3EBD11F08BF6E00F1B2C2F380738CEA60
:102CF0004605B3EBD11F08BF750085EA126149B2E2
:102D00006B00002948BF8CEA4503D9B2C2F30046E4
:102D10008CEA4305B6EBD11F08BF5D00E9B2C2F3F0
:102D200040438CEA4506B3EBD11F08BF6E00F1B2F9
:102D3000C2F380438CEA4605B3EBD11F08BF750090
:102D4000E9B2C2F3C0438CEA4506B3EBD11F08BF1A
:102D50006E00F1B2C2F300538CEA4605B3EBD11F0B
:102D600008BF7500E9B2C2F340538CEA4506B3EBE5
:102D7000D11F08BF6E00F1B2C2F380538CEA460542
:102D8000B3EBD11F08BF750085EA124149B26B0051
:102D9000002948BF8CEA4503D9B2C2F300268CEA69
:102DA0004305B6EBD11F08BF5D00E9B2C2F3402373
:102DB0008CEA4506B3EBD11F08BF6E00F1B2C2F337
:102DC00080238CEA4605B3EBD11F08BF7500E9B23A
:102DD000C2F3C0238CEA4506B3EBD11F08BF6E00D7
:102DE000F1B2C2F300338CEA4605B3EBD11F08BF42
:102DF0007500E9B2C2F340338CEA4506B3EBD11F4C
:102E000008BF6E00F1B2C2F380338CEA4605B3EB23
:102E1000D11F08BF750085EA122149B26B00002955
:102E200048BF8CEA4503D9B202F001068CEA43059B
:102E3000B6EBD11F08BF5D00E9B2C2F340038CEAD4
:102E40004506B3EBD11F08BF6E00F1B2C2F3800399
:102E50008CEA4605B3EBD11F08BF7500E9B2C2F397
:102E6000C0038CEA4506B3EBD11F08BF6E00F1B278
:102E7000C2F300138CEA4605B3EBD11F08BF7500FF
:102E8000E9B2C2F340138CEA4506B3EBD11F08BF89
:102E90006E00F1B2C2F380138CEA4605B3EBD11F8A
:102EA00008BF750085EA020149B26A00002948BFDF
:102EB0008CEA450200688DF80720694608226423E1
:102EC000FEF774FF02B070BD002908BF704701F023
:102ED000FE02042A0AD10021017001710169012258
:102EE000034608461A7500F0B3B900BF0278052AF8
:102EF00011D8DFE802F00321132D1039032961D026
:102F000002294BD0012906D141780131CAB2042AE5
:102F100088BF0021417001210175704702292DD021
:102F20000129F8D1C1880A097C2A9CBF3231C180AD
:102F300001210175704700BF032955D0022937D000
:102F40000129E8D141880A3141800121017570478A
:102F500002291BD00129DED1017A02299CBF01314F
:102F600001720121017570470229D4D8417AB1FA62
:102F700081F149094172012101757047C1886529B4
:102F800024BF3239C180012101757047017A0029BF
:102F90001CBF013901720121017570474178002978
:102FA00014BF01390421417001210175704700BF30
:102FB000B0F902100A29A4BF0A3941800121017524
:102FC000704700BF417804299CBF0131017010B5E2
:102FD00001690446084600F03BF92046BDE8104070
:102FE00001210175704700BF0179B1FA81F14909EA
:102FF0000171012101757047002240F22033C0F2B7
:103000000103C0E90321012102600271C0F806300A
:1030100001757047F0B589B00446007D002800F0C6
:10302000C3802078052800F2BD80DFE800F0037936
:103030004F613D9D206900210022002600F020F90B
:1030400040F210016078C2F2000101F1180757F850
:10305000202043F6DB3101ADC0F600012846FDF724
:10306000D1F8206929468DF8146000F0C5F920696F
:103070000021012200F004F9607843F2343101307C
:103080004143090C01EB8101401A80B257F820201E
:1030900043F6C831C0F600012846FDF7B3F82069B1
:1030A0008DF814607BE000BF20690021002200F051
:1030B000E7F8206945A100F09FF92069002101226D
:1030C00000F0DEF8E26846A164E000BF206900215C
:1030D000002200F0D5F820694FA100F08DF9206999
:1030E0000021012200F0CCF8E28850A152E000BF9C
:1030F00020690021002200F0C3F820693DA100F002
:103100007BF920690021012200F0BAF8207A40F210
:103110001001C2F2000101EB800082683AA139E09F
:1031200020690021002200F0ABF8B4F9022043F638
:10313000224101ADC0F600012846FDF763F8206981
:10314000294600F059F920690021012200F098F881
:103150002279206943F6314338A1C0F60003002AE2
:1031600008BF19461CE000BF20690021002200F0C2
:1031700087F820690DA100F03FF9206900210122A4
:1031800000F07EF8607A40F21001C2F2000151F8BE
:1031900020200BA101AD2846FDF734F8206929460F
:1031A00000F02AF90020207509B0F0BD4D6F746F52
:1031B0007220446972656374696F6E2000000000BC
:1031C0004469723A202573202020000048616E6413
:1031D000776865656C204D6F6465202000000000F5
:1031E00053746570733A20256C64202020202020C1
:1031F000000000004D6963726F7374657020436F47
:103200006E66696700000000537465703A2025738C
:103210002020202020000000536574204375727226
:10322000656E7420286D412900000000495F5275C9
:103230006E3A20253464206D41200000537461747F
:1032400075733A2052554E205B585D00FEE7000032
:1032500080B582B040F60C020368C1F61C02017909
:1032600001924FF0640C01AA18460423CDF800C067
:10327000FDF700FC0220FDF707FA02B080BD000058
:10328000032A88BF7047DFE802F0030B070900BF7D
:103290006FF07F02514004E06C3902E02C3900E00D
:1032A000403980B582B021F00F02090102F10C0310
:1032B00008328DF804308DF8052001F10C02036806
:1032C0008DF8062001F1080201798DF807204FF0F2
:1032D000640C01AA18460423CDF800C0FDF7CAFB10
:1032E00002B0BDE88040704770B582B004464E2001
:1032F00020713220FDF7C8F943F63C062068217999
:10330000C0F60C06642501AA042301960095FDF77A
:10331000B1FB0520FDF7B8F92068217901AA042343
:1033200001960095FDF7A6FB0120FDF7ADF9206899
:10333000217901AA042301960095FDF79BFB0A2041
:10334000FDF7A2F942F62C02C0F60C0220682179A2
:10335000019201AA04230095FDF78CFB0A20FDF7DA
:1033600093F942F62C02C8F68C022068217901926A
:1033700001AA04230095FDF77DFB0120FDF784F9E8
:1033800040F60C02C8F68C0220682179019201AA4D
:1033900004230095FDF76EFB0120FDF775F940F65B
:1033A0000C02C1F61C0220682179019201AA0423B3
:1033B0000095FDF75FFB0220FDF766F940F60C0271
:1033C000C6F66C0220682179019201AA04230095B7
:1033D000FDF750FB0120FDF757F940F60C02CCF643
:1033E000CC0220682179019201AA04230095FDF7FF
:1033F00041FB02B070BD00000A78002A08BF704788
:10340000F0B583B004464E1E642702AD22F00F00D3
:10341000110100F10D0209308DF8090001F10D00D4
:103420008DF808208DF80A0001F109022068217941
:103430008DF80B202A4604230097FDF71BFBB2787A
:103440000136002AE2D103B0BDE8F0407047000029
:1034500094B040F60004C4F20104FDF749FC0026D4
:103460000120CDE90F66CDE90D660A900E904FF46C
:10347000E0104FF48031022513900AA8CDE90B1615
:10348000CDE91151FDF7E2FD0F2005A961C14FF40F
:103490008060CDE9080605A80221FDF7D1FCFEF702
:1034A0005FFFFEF7CDFFFFF771F8FFF7A3F8FEF718
:1034B000E9FF41F21806C4F202063068002240F02B
:1034C00010003060306800F010000A900A9841F255
:1034D0000400C4F20100016821F470010160016878
:1034E00041F40011016020460821FDF705FA30681B
:1034F00040F001003060306800F001000A900A9846
:103500000420C4F20100016865F31A6140F2A805C5
:103510000160C2F2000540F20C10C2F200002E461B
:1035200046F8100F3046FFF7DFFE3046FFF790FEFB
:1035300004F5806806F1080740F2A811C2F2000104
:10354000384642462023FDF781F83846FDF778F8E3
:1035500026F80E0C4FF480504FF400614FF4804277
:1035600006F12C07CDE9002402910490384621464B
:103570004FF4004243460394FFF782FA6420FDF7BC
:1035800083F840F2F011C2F2000138460022FFF742
:1035900093FA38464FF448713222FFF795FA3846CD
:1035A0000021FFF7D3FA20464FF400610022FDF717
:1035B000A3F920464FF480510122FDF79DF906F151
:1035C000140738463146FFF717FD30460021002228
:1035D000FFF756FE1AA13046FFF70EFF30460021D6
:1035E0000122FFF74DFE1BA13046FFF705FF4FF408
:1035F0007A70FDF749F83046FFF72AFE3846FFF7A4
:1036000009FD0AE0FFF71AF8FFF736F905F1240083
:10361000FFF700FD0520FDF737F895F82800002892
:10362000F0D1FDF76FF9E968401AB0F57A7FE9D972
:1036300020460821FDF758F9FDF764F9E860E1E755
:103640005374657070657220416E616C797A657231
:103650000000000053797374656D205265616479D0
:103660002100000030380A2801D2012070470020D4
:103670007047000090EA010F48BF81F0004100F15F
:103680002082421A3CBF801A89184FEAD052A2EB1E
:10369000D1534FF07F4C1CEA410F18BF9CEA026FD8
:1036A00000F03B804FF0004C4CEA00204CEA012136
:1036B00021FA03FC10EB0C0C1ED202F1FF325FEA80
:1036C0001C2040EBC25038BF70471CF07F0F4FEA00
:1036D000400C18BFBCF17F4F38BF7047C3F12003C7
:1036E000994008BF20F00100BCF17F4F38BF704700
:1036F000A0F1C04000F0D9B94FEA3C00000A40EB0D
:10370000C25028BF1CF0FF0F4FEA400CE6D018BF94
:10371000BCF17F4F38BF7047EAE79CEA026F05D0E3
:1037200010EA5C0F08BF00F00040704710B500F0D1
:1037300076F900BF64FBBE3E4FF47F0C1CEAD0124A
:103740001EBF1CEAD11392EA0C0F93EA0C0F00F093
:10375000858090EA010F48BF42F4807240F4000C6B
:1037600041F400002CF07F4120F07F4000B5A2EB37
:10377000030281420FF2081CACEB504E9EF800E0B1
:10378000C0F100004FEA4E0E00FB0EFC38BF4900AE
:103790004FEA2C1C0CFB0EF34FEACE1E0EEB635EC1
:1037A0004FEA112C0EFB0CFC4FEAC1214FEA1C53CF
:1037B00000FB031102F5FA024FEA112C0EFB0CFC80
:1037C0004FEA01314FEADC4C00FB0C1142EB224284
:1037D000C14228BF09184CEB03335DF804EB10EB32
:1037E000410143EBC250B2F57C0F38BF704729D579
:1037F00012F0F00F1CBF00F1C04000F00040704715
:10380000008182838485868788898B8C8D8E8F91B9
:103810009293959697999A9C9D9FA0A2A3A5A7A8DD
:10382000AAACAEB0B2B3B5B7B9BCBEC0C2C5C7C909
:10383000CCCED1D4D7D9DCDFE2E6E9ECF0F3F7FA6D
:10384000FE0000004FEA400C0CF1807CBCF17E4F82
:1038500028BF7047B0F1C04000F027B90CEAD1137F
:1038600090EA010F48BF42F48072624538BF634559
:1038700007D213F47F0F16D080EA010000F0004059
:10388000704710B500F0CBF8097EFC3E00F005B89B
:1038900080EA010000F00040704780EA010000F07B
:1038A000004000F002B912F47F0F04BF02487047D5
:1038B00080EA010000F0F9B80000C07F41000B0E63
:1038C000D3F19E0208D950F400034FEA032323FAF0
:1038D00002F048BF4042704710B500F0A0F800BFAA
:1038E00049922480002070476FF0004282EA200055
:1038F00070470000B0FA80F310FA03F2C3F19D03A1
:103900000AD0D90501EB1220530638BF704700F1E9
:10391000010008BF20F00100704700004FF47F0C49
:103920001CEAD0121EBF1CEAD11392EA0C0F93EAD4
:103930000C0F00F0478090EA010F48BF42F48072FC
:103940004FF0004C4CEA00204CEA012102EB03024C
:10395000A0FB0113A2F50002002918BF43F00103E8
:103960005B0028BF4FEA330342EB22425FEA132C8D
:103970004CEBC2502EBFBCEB436FB2F57C0F7047CF
:103980004FEA036CBCF1004F08BF20F00100B2F514
:103990007C0F38BF70470BD582F0FF0212F5803FD5
:1039A000C8BF704700F1C040D8BF00F0004070476A
:1039B00000F5000C5FEA4C0C48BF7047B0F1C04006
:1039C00000F073B80CEAD11390EA010F48BF42F43B
:1039D0008072624538BF634504D280EA010000F07E
:1039E0000040704710B500F01AF800BF8900013E92
:1039F00000F007B800F009B85FEA410C5FEA1C6C00
:103A000008D080EA010000F050B85FEA400C5FEA9D
:103A10001C6CF6D14FF00040A0F5800070470EF10D
:103A2000020E2EF0030E5EF8044B244204D44FEA3B
:103A30004102B2F17F4F11D84FEA4003B3F17F4FFB
:103A40000CD80ED14FEAD07C0CEB4C0C0CF1020CD4
:103A5000B2F17F4F08BF4CEBD17C04E04FF0080C73
:103A600001E04FEAD17C0CEB4C0324FA03F404F0A0
:103A70000704B4F1040C06D20EEB840CBDE8104030
:103A80004CF0010C6047DFE80CF0070802024FF031
:103A90000040A0F5800010BD0846420018BFD2F1DA
:103AA000807288BF00F0004010BDFF2141EAD05075
:103AB000C005704790EA010F48BF81F000413FF513
:103AC000E0AD421A04D882F00042A0EB020011449B
:103AD0004FEAD052A2EBD1534FF07F4C1CEA410F7A
:103AE00018BF9CEA026F4AD04FF0004C4CEA00200D
:103AF0004CEA012121FA03FCB0EB0C0C0FD412F0BC
:103B0000FE0F36D05FEA4C001DD5001240EBC250CC
:103B100038BF70471CF03F0F18BF70470BE05FEADB
:103B20001C20A2F1010240EBC25038BF70471CF0CC
:103B30007F0F18BF7047C3F12003994014BF401E88
:103B400020F0010070474FEA1223800808BF704739
:103B5000B0FA80FCA2EB0C02CCF1280C60FA0CF05D
:103B600093EA122F04BF00EBC25070474FEAC370B4
:103B70007047130A5FEADC1008BF7047F6E79CEA5B
:103B8000026F04D010EA5C0F08BF0020704710B528
:103B9000FFF745FF40DFF63E81F000407047000030
:103BA00000000000000001020304060708090000ED
:103BB00000000102030401020203040506070809CC
:103BC0000A0B0C0D0E0F1010202025732020202032
:103BD00020202020202020202020003E202573208F
:103BE00020202020202020202020202020004343AF
:103BF000572028436F756E74657229202000435743
:103C00002028436C6F636B77697365292000312F1F
:103C1000382000312F333200312F363400312F312C
:103C2000360053706565643A202534642052504D47
:103C3000005374617475733A2053544F505B205D88
:103C400000352E446972656374696F6E00312E4DC4
:103C5000616E75616C2052756E00332E4D69637212
:103C60006F7374657000322E5365742043757272E1
:103C7000656E7400342E506F732E2054657374007B
:103C8000A03C00080000002048000000500100088F
:103C9000E83C000848000020F80700007001000818
:103CA000FFFF02FFFFFF0000010000001000000006
:103CB000FE3B0008EE3B00080E3C00081D3C0008DF
:103CC000133C0008183C00084D3C0008663C000806
:103CD0005A3C0008743C0008413C000800127A007D
:083CE0000100000000000000DB
:04000005080000ED02
:00000001FF
